AAAAA           ABABAB              116 DAYTON SCHOOL RD     EASLEY              SC29642140886485543690124200300000000                  00028733321010003449TRVENR
BBBBB           CDDCDCD             PO BOX 50                ROOSEVELTOWN        NY13683005061393202210127200300000000                  00070104857010001513TRVENR
CCCCCCC         EFEFEFEF            10580 HIDDEN MESA PL     MONTEREY            CA93940662783165702280121200300000000                  00634729755010001513TRVENR
DDDDDD          GHGHGH              6219 W 94TH ST           OAK LAWN            IL60453159680070859970121200300000000                  00665782026010001513TRVENR
EEEEEEE         HIHIHIIH            506 E 53RD ST S          WICHITA             KS67216450131652491600117200300000000                  00686876225010003449TRVENR
FFFFFF          JKJKJKJ             755 CRESCENT ST          BROCKTON            MA02302    50858433480115200300000000                  03521907901010001513TRVENR
GGGGGG          LMLMLML             1110 GEORGE CT           LAWRENCE            KS66044471578584324670115200303272003                  03521912955010002765ENTBRJ
HHHHH           NONONOR             28316 PLANTATION DR      ATLANTA             GA30324295240426296490115200304242003                  03521913005010002765ENTBRJ
IIII            PAMPELL             2779 BOB LITTLE RD       ELIZABETHTON        TN37643720542354345540115200303272003                  03521913061010002765ENTBRJ
JJJJJ           QESHER              4412 E MULBERRY ST       FORT COLLINS        CO80524925697048264300115200304172003                  03521913185010002765ENTBRJ
KKKKKKK         RAMMERS             110 DOUGLAS ST           O FALLON            IL62269190161863244170115200303272003                  03521913196010002765ENTBRJ
LLLLL           BRADLEY             95 HECKER PASS           WATSONVILLE         CA95076861483172431200227200302272003                  00883363035010001513TRVPBC
MMMMMM          ABABAB              9100 HARVEST LN          WICHITA             KS67212406831672245700307200303072003                  03036689227010001513TRVPBC
NNNN            CDCDHII             935 BURNT HICKORY        MARIETTA            GA30064207677042487530307200303072003                  03052570659010003449TRVPBC
OOOO            XXXXX               PO BOX 519               NAGS HEAD           NC27959051925244165070408200304082003                  03200724748010003449TRVPBC
PPPPPP          YYYYYY              4844 OLD DOMINION DR     ARLINGTON           VA22207274370353388000317200303172003                  03217910218010003449TRVPBC
QQQQQQQ         GHGHGHG             812 S WILLIAMS ST        MOBERLY             MO65270182066026351370221200302212003                  03287145213010001513TRVPBC
RRRRRRR         IJIJIJK             3301 CLINTON RD          FAYETTEVILLE        NC28301614591048343030228200302282003                  03378549579010003449TRVPBC
SSSS            LKMLMLMLIOCK        1324 12TH AVE SE         ABERDEEN            SD57401775960522563410412200304122003                  03405186358010003449TRVPBC
TTTTTTTTTT      NONONO              12459 SMITH RD           SPRINGVILLE         NY14141978671659289050403200304032003                  03415836552010003449TRVPBC
