AAAAAAA         PPPP                3 GREENSVIEW DR          WEST HARTFORD       CT06107363086056138690407200300000000                  03080013530010009893TRVENR
BBBBBBB         QQQQ                4700 N SNYDER CIR        TUCSON              AZ85749967452074957870407200300000000                  03212737016010012495TRVENR
CCCCC           RRRRRRR             5458 LAKE RD             FIFE LAKE           MI49633931323136933480408200300000000                  03219324187010012495TRVENR
DDDDDD          SSSSSS              44 CONCORD ST            BUFFALO             NY14212161271689183310402200304112003                  03363809589010009917TRVENR
EEEE            TTTTTTT             PO BOX 12                SOCIAL CIRCLE       GA30025001277046433820403200300000000                  03399320100010012509TRVENR
FFFFF           UUUUUE              21 KANE RD               MC HENRY            MS39561957360152855200000000000000000                             010011619ENTERR
GGGGG           VVVVV               3111 PUALEI CIR          HONOLULU            HI96815493980892362530000000000000000                             010009917TRVERR
HHHHHHH         VWWWWWWW            PO BOX 934               AUGUSTA             ME04332    20762255550000000000000000                             010012495TRVDUP
IIIII           WXXXXYYY            APT K                    LOUISVILLE          KY40203530750258714280000000000000000                             010012510TRVDUP
JJJJJJJ         QXXXTYYS            325 79TH ST              NORTH BERGEN        NJ07047567120186892940000000000000000                             010012510TRVDUP
KKKKK           ZZZZ                343 S 42ND ST            LOUISVILLE          KY40212251550277658070000000000000000                             010012509TRVDUP
LLLLL           ABSABAB             822 N OWENSBY ST         LA PLATA            MO63549109466033279800000000000000000                             010012509TRVDUP
MMMM            CDCDCDC             606 ELLEN RD             NEWPORT NEWS        VA23605281475724511800000000000000000                             010012495TRVDUP
NNNNN           EFEFEF              1201 EASTTOWN DR         IOWA                LA70647381733743919290000000000000000                             010012495TRVDUP
OOOOOO          BFGFGFGF            714 FLORENCE ST          KALAMAZOO           MI49007249926961525250000000000000000                             010009917TRVDUP
